:100000000C942A000C9447000C9447000C94470071
:100010000C9447000C9447000C9447000C94470044
:100020000C9447000C9447000C9447000C94470034
:100030000C9447000C9447000C9447000C94470024
:100040000C9447000C9447000C9447000C94470014
:100050000C94470011241FBECFE5D4E0DEBFCDBF16
:1000600010E0A0E6B0E0ECE9F8E002C005900D92E7
:10007000A836B107D9F720E0A8E6B0E001C01D928C
:10008000A439B207E1F70E94C9020C944C040C9405
:100090000000379A3D98813039F018F0833049F4E8
:1000A00006C03E983F9805C03E9A3F9802C03E9ACF
:1000B0003F9A6330B9F020F4613061F078F406C003
:1000C0006530C1F098F06630E1F418C0329831988C
:1000D0003098089532983198309A08953298319A2C
:1000E000309808953298319A309A0895329A31981A
:1000F00030980895329A319A30980895329A319A08
:10010000309A089597B1987F97B997B18770982BD7
:1001100097B9369A349BFECF349A84B195B1682F43
:10012000792F80E090E008950E9481010E94AD0245
:1001300080E690E00E945A026AE080E00E946F022E
:1001400083E40E94FC010E94B102089580E00E94B5
:10015000B602C62F67E080E00E946F028C2F90E00D
:100160000E948E02F3CFFC018081823449F018F4A2
:10017000813489F40EC0833431F0843461F406C0D4
:10018000A7E3B0E008C0A4E3B0E005C0A1E3B0E09D
:1001900002C0AAE3B0E08281813069F44C9121E091
:1001A00030E0C901018002C0880F991F0A94E2F76C
:1001B000842B8C93089581110DC04C9121E030E087
:1001C000C901018002C0880F991F0A94E2F7809547
:1001D00084238C930895FC018081823449F018F4C3
:1001E000813489F40EC0833431F0843461F406C064
:1001F000A8E3B0E008C0A5E3B0E005C0A2E3B0E02A
:1002000002C0ABE3B0E08381813069F44C9121E01E
:1002100030E0C901018002C0880F991F0A94E2F7FB
:10022000842B8C93089581110DC04C9121E030E016
:10023000C901018002C0880F991F0A94E2F78095D6
:1002400084238C930895EF92FF920F931F93CF9383
:10025000DF93E82E10926B0088E690E00E94EB009E
:1002600010926F008CE690E00E94EB0089EF90E026
:100270000197F1F700C0000081E08093730080E7F0
:1002800090E00E94EB00E9EFF0E03197F1F700C059
:10029000000007E710E0C0E0D0E0F12C97010C2E41
:1002A00002C0359527950A94E2F721703327F801AB
:1002B0002083CE01880F991F880F991F8C589F4F5C
:1002C0000E94EB0021960C5F1F4FC830D10531F71B
:1002D00089EF90E00197F1F700C0000010927300E1
:1002E00080E790E00E94EB00E9EFF0E03197F1F752
:1002F00000C00000DF91CF911F910F91FF90EF9010
:100300000895CF93DF9381E080936A0010926B0091
:1003100080936E0010926F008093720010927300B1
:1003200084E08093690084E48093680095E0909372
:100330006D0080936C0096E0909371008093700044
:10034000E7E7F0E087E990E021E0DF0111972C93E7
:1003500010823496E817F907C1F71092750081E012
:100360008093790082E080937D0083E08093810018
:1003700084E08093850085E08093890086E0809307
:100380008D0087E08093910083E4809374008093D4
:10039000780080937C008093800080938400809319
:1003A000880080938C008093900088E690E00E9403
:1003B000B3008CE690E00E94B30080E790E00E94DA
:1003C000B300C0E0D0E0CE01880F991F880F991FBD
:1003D0008C589F4F0E94B3002196C830D10599F7E1
:1003E00088E30E9423018CE00E94230181E00E94A7
:1003F0002301DF91CF910895EF92FF920F931F9306
:10040000CF93DF93E82EC1E0C0936B0088E690E0C5
:100410000E94EB0010926F008CE690E00E94EB00CF
:1004200089EF90E00197F1F700C00000C0937300DE
:1004300080E790E00E94EB00E9EFF0E03197F1F700
:1004400000C0000007E710E0C0E0D0E0F12C970109
:100450000C2E02C0359527950A94E2F721703327B8
:10046000F8012083CE01880F991F880F991F8C589F
:100470009F4F0E94EB0021960C5F1F4FC830D105A3
:1004800031F789EF90E00197F1F700C0000010927A
:10049000730080E790E00E94EB00E9EFF0E0319715
:1004A000F1F700C00000DF91CF911F910F91FF90F5
:1004B000EF9008951F93CF93DF93EC0188818823F9
:1004C00051F010E00E94FC011F5FFE01E10FF11DE1
:1004D00080818111F7CFDF91CF911F910895CF9344
:1004E000DF931F92CDB7DEB7813041F028F0823024
:1004F00041F0833059F408C0698308C0605C6983A7
:1005000005C0605F698302C0605B69838981806820
:100510000E9423010F90DF91CF910895CF93DF9335
:10052000CDB7DEB760970FB6F894DEBF0FBECDBF74
:100530004AE050E0BE016F5F7F4F90E00E940704E9
:10054000CE0101960E945A0260960FB6F894DEBF63
:100550000FBECDBFDF91CF91089581E00E942301AE
:10056000089563E080E00E94490008950E9482009F
:100570009B01AC01AEEEB2E00E94F0030E94620368
:1005800020E030ED4FEB54E40E94CE020E9436038F
:1005900008950E9494000E94A600FDCF0CD0E6C0F2
:1005A000DED040F0D5D030F021F45F3F19F0C7C065
:1005B000511110C1CAC0EBD098F39923C9F3552348
:1005C000B1F3951B550BBB27AA2762177307840746
:1005D00038F09F5F5F4F220F331F441FAA1FA9F3FC
:1005E00033D00E2E3AF0E0E830D091505040E695EE
:1005F000001CCAF729D0FE2F27D0660F771F881F4F
:10060000BB1F261737074807AB07B0E809F0BB0B3D
:10061000802DBF01FF2793585F4F2AF09E3F510561
:1006200068F08DC0D7C05F3FECF3983EDCF3869551
:1006300077956795B795F7959F5FC9F7880F911DD7
:100640009695879597F90895E1E0660F771F881FC3
:10065000BB1F621773078407BA0720F0621B730B76
:10066000840BBA0BEE1F88F7E095089598D088F0B8
:100670009F5790F0B92F9927B751A0F0D1F0660F8E
:10068000771F881F991F1AF0BA95C9F712C0B130A9
:1006900081F09FD0B1E008959CC0672F782F882704
:1006A000B85F39F0B93FCCF3869577956795B395E8
:1006B000D9F73EF490958095709561957F4F8F4F57
:1006C0009F4F0895E89409C097FB3EF4909580955C
:1006D000709561957F4F8F4F9F4F9923A9F0F92F08
:1006E00096E9BB279395F695879577956795B79586
:1006F000F111F8CFFAF4BB0F11F460FF1BC06F5F6C
:100700007F4F8F4F9F4F16C0882311F096E911C07D
:10071000772321F09EE8872F762F05C0662371F09E
:1007200096E8862F70E060E02AF09A95660F771FB2
:10073000881FDAF7880F9695879597F9089597F9A6
:100740009F6780E870E060E008959FEF80EC089577
:1007500000240A94161617061806090608950024A0
:100760000A9412161306140605060895092E03941A
:10077000000C11F4882352F0BB0F40F4BF2B11F48E
:1007800060FF04C06F5F7F4F8F4F9F4F089557FDED
:100790009058440F551F59F05F3F71F04795880FEF
:1007A00097FB991F61F09F3F79F087950895121686
:1007B00013061406551FF2CF4695F1DF08C0161632
:1007C00017061806991FF1CF8695710561050894E3
:1007D0000895E894BB2766277727CB0197F90895FA
:1007E0000E94FB03A59F900DB49F900DA49F800DC8
:1007F000911D11240895A29FB001B39FC001A39F32
:1008000001D0B29F700D811D1124911D0895FB012F
:100810009F01E8944230C4F04532B4F44A3029F4E0
:1008200097FB1EF4909581959F4F642F77270E9428
:100830003804805D8A330CF0895D8193CB01009789
:10084000A1F716F45DE251931082C9010C942804BB
:10085000DC01FC01672F71917723E1F7329704C027
:100860007C916D9370836291AE17BF07C8F30895B2
:10087000AA1BBB1B51E107C0AA1FBB1FA617B707C6
:1008800010F0A61BB70B881F991F5A95A9F78095E2
:0C0890009095BC01CD010895F894FFCFB5
:08089C0054656D70203D200041
:00000001FF
